:020000040800F2
:100000008005002001010008A7120008E711000880
:10001000A51200083F020008AD1B00080000000008
:10002000000000000000000000000000391A000875
:100030004102000800000000011900083B1A0008F6
:100040001B0100081B0100081B0100081B01000820
:100050001B0100081B0100081B0100081B01000810
:100060001B0100081B0100081B0100081B01000800
:100070001B0100081B0100081B0100081B010008F0
:100080001B0100081B0100081B0100081B010008E0
:100090001B0100081B0100081B0100081B010008D0
:1000A0001B0100081B0100081B0100081B010008C0
:1000B0001B0100081B0100081B0100081B010008B0
:1000C0001B0100081B0100081B0100081B010008A0
:1000D0001B0100081B0100081B0100081B01000890
:1000E0001B0100081B0100081B010008DFF80CD0F1
:1000F00000F084F8004800478520000880050020B3
:100100000648804706480047FEE7FEE7FEE7FEE7B1
:10011000FEE7FEE7FEE7FEE7FEE7FEE78D1A0008D2
:10012000ED000008202A04DB203A21FA02F0002129
:10013000704721FA02F3D040C2F1200291400843F7
:100140001946704740EA01039B0703D009E008C93C
:10015000121F08C0042AFAD203E011F8013B00F88C
:10016000013B521EF9D27047D2B201E000F8012BD8
:10017000491EFBD270470022F6E710B513460A4627
:1001800004461946FFF7F0FF204610BD421C10F848
:10019000011B0029FBD1801A70472DE9F05F05464D
:1001A000002092469B4688460646814640241BE036
:1001B0002846414647462246FFF7B4FF53465A4673
:1001C000C01A914110D311461846224600F028F873
:1001D0002D1A67EB01084F4622460120002100F04E
:1001E0001FF817EB00094E41201EA4F10104DFDCCB
:1001F000484631462A464346BDE8F09F064C074D27
:1002000006E0E06840F0010394E8070098471034E6
:10021000AC42F6D3FFF76EFFA02A0008C02A000800
:10022000202A04DB203A00FA02F1002070479140B6
:10023000C2F1200320FA03F3194390407047FEE710
:100240007047000070B5044600F008F90546601CD0
:1002500002D004480078044400F000F9401BA0429A
:10026000FAD370BD080000202DE9F84FDFF8B891EF
:10027000002409F1040A0AF1040B23460F270BF1AD
:10028000040EC9E00125A5402A40AA427DD1674E4F
:10029000D1F804C0ACEB0608B44532D014DCBCF194
:1002A000030F3AD009DCBCF1000F2AD0BCF1010FDA
:1002B0001CD0BCF1020F31D11DE0BCF1110F17D0E1
:1002C000BCF1120F2AD119E0B8F5881F19D006DC4D
:1002D000B8F5803F15D0B8F5801F1FD111E0B8F5F3
:1002E000001F0ED0B8F5041F18D10AE0CB6815E046
:1002F000CB681B1D12E0CB6808330FE0CB680C33D2
:100300000CE08B682BB1012B4FF0080303D0456143
:1003100004E0042302E0056100E00023FF2A01D885
:10032000064601E000F104064FEA840501D9A5F173
:100330002005D6F8008007FA05FC28EA0C0803FA25
:1003400005F548EA0508C6F800804D68ED0062D55D
:10035000374DAE6946F00106AE61AD6924F0030683
:1003600005F001050095334D06EB050CDCF808504F
:10037000A607360F07FA06F825EA0805DFF8B88061
:10038000404503D14FF0000817E044E0DFF8AC80AF
:10039000404502D14FF001080FE0DFF8A48040454E
:1003A00002D14FF0020808E0DFF89880404502D102
:1003B0004FF0030801E04FF0040808FA06F848EA95
:1003C0000508CCF808804D68D9F80060ED034D466B
:1003D00001D5164300E096432E604D68DAF80060C0
:1003E000AD03554601D5164300E096432E604D6897
:1003F000DBF80060ED025D4601D5164300E0964350
:100400002E604D68DEF80060AD02754601D51643DA
:1004100000E096432E60641C0D682A46E5407FF498
:1004200031AFBDE8F88F000000040140000011105A
:10043000001002400000014000080140000C014093
:1004400000100140001401408068084000D00120E5
:1004500070470AB1016170470904FBE701488068F1
:1004600070470000080000200248816802781144AB
:100470008160704708000020074810B5016841F00E
:1004800010010160032000F067F8002000F006F87A
:1004900000F024F8002010BD0020024070B50D4D82
:1004A00004464FF47A712878B1FBF0F00A490968E4
:1004B000B1FBF0F000F0C1FD48B9102C07D20022CA
:1004C0002146501E00F028F800206C6070BD01200D
:1004D00070BD000008000020140000200C4808B582
:1004E000816941F001018161816901F0010100919F
:1004F000C16941F08051C161C06900F08050009035
:100500000448416821F0E06141F00071416008BD9C
:100510000010024000000140F0B40E4B1B680C4676
:10052000C3F30223C3F10705042D00D90425191DC7
:10053000072901D2002300E0DB1E012606FA05F19F
:10054000491E214099409E40761E16403143F0BC22
:1005500001F042BB0CED00E0064900F0070208681C
:100560004FF6FF03184040EA0220034A1043086098
:10057000704700000CED00E00000FA052DE9F0479F
:100580000F46050061D0434E306800F00700B842C6
:1005900009D2306820F0070038433060306800F03E
:1005A0000700B84251D128683B4C810712D540075B
:1005B00003D5606840F4E06060602878000703D5E8
:1005C000606840F4605060606068A96820F0F000E6
:1005D000084360602878C00728D06868012810D0D8
:1005E0002168022810D0890700292EDA616821F0DD
:1005F000030101436160FFF731FF804641F2883912
:100600000DE021688903EFE78901EDE7FFF726FF99
:10061000A0EB0801494502D90320BDE8F0876068D6
:10062000696800F00C00B0EB810FEFD1306800F08A
:100630000700B8420BD9306820F00700384330601B
:10064000306800F00700B84201D00120E5E72878C3
:10065000400705D56068E96820F4E0600843606001
:100660002878000706D56068296920F4605040EAC0
:10067000C100606000F038F86168084AC1F30311F6
:10068000515CC8400649086006480068FFF706FF4D
:100690000020C2E70020024000100240AC29000800
:1006A000140000200C000020044805490068496837
:1006B000044AC1F30221515CC84070471400002075
:1006C00000100240BC290008044805490068496838
:1006D000044AC1F3C221515CC84070471400002095
:1006E00000100240BC29000812A185B00FC98DE896
:1006F0000F0014A0144A006804905168134801F0D8
:100700000C03042B10D0082B0ED1C1F38343C90373
:100710001DF803000AD5516804AAC1F34041515C99
:100720000A4A5043B0FBF1F005B07047084948430E
:10073000FAE7000002030405060708090A0B0C0D7E
:100740000E0F1010010200000010024000127A008B
:1007500000093D002DE9F84F040070D02078C04D0D
:10076000C00749D06868C0F38100012807D06868D5
:10077000C0F38100022809D16868C00306D5286843
:10078000800339D560680028E7D035E06068B0F5AF
:10079000803F0BD010B1B0F5A02F11D0286820F405
:1007A00080302860286820F4802002E0286840F427
:1007B00080302860606890B1FFF750FE06460AE07E
:1007C000286840F480202860F0E700BFFFF746FE6D
:1007D000801B642873D828688003F7D50CE0FFF7E6
:1007E0003DFE064605E000BFFFF738FE801B64288B
:1007F000F0D828688003F7D420789A4E80074FF00D
:1008000001094FF0000839D5686810F00C0F07D0C7
:100810006868C0F38100022809D16868C00306D463
:100820002868800714D52069012808D110E02069C4
:10083000B0B1C6F80090FFF711FE074605E00AE1E7
:10084000FFF70CFEC01B0228C4D828688007F7D524
:100850002868616920F0F80040EAC10028600DE0D6
:10086000C6F80080FFF7FAFD074604E0FFF7F6FD43
:10087000C01B022823D828688007F7D420780007F7
:100880002CD57948A169D9B1C0F80090FFF7E6FDF1
:10089000074604E0FFF7E2FDC01B02280FD8686A94
:1008A0008007F7D571484FF4FA510068B0FBF1F0BA
:1008B000009000BF0098411E0091FAD20EE080E047
:1008C000C0F80080FFF7CAFD074604E0FFF7C6FD49
:1008D000C01B022875D8686A8007F7D420784007C3
:1008E00060D5E8690027C00008D4E86940F080506E
:1008F000E861E869012700F0805000905C480168D9
:10090000C90513D40168834641F480710160FFF783
:10091000A5FD824606E000BFFFF7A0FDA0EB0A00A0
:1009200064284ED8DBF80000C005F5D5E068012842
:100930000AD008B1052813D0286A20F001002862E7
:10094000286A20F0040002E0286A40F001002862D2
:10095000E06841F2883B98B1FFF780FD82460BE0EA
:10096000286A40F004002862EEE700BFFFF776FD3A
:10097000A0EB0A0159455AD8286A8007F6D50CE041
:10098000FFF76CFD824605E0FFF768FDA0EB0A016A
:1009900059454CD8286A8007F6D41FB1E86920F081
:1009A0008050E861E06988B36968C1F38101022978
:1009B00044D00228C6F8608004D0FFF74FFD0446FB
:1009C00038E034E0FFF74AFD074604E0FFF746FD54
:1009D000C01B02282BD828688001F7D4206AB0F504
:1009E000803F05D16868A16820F400300843686042
:1009F000D4E908010843696821F474110843686068
:100A0000C6F86090FFF72AFD044606E025E000BF27
:100A1000FFF724FD001B022809D828688001F7D5BC
:100A20001BE000BFFFF71AFD001B022802D90320BC
:100A3000BDE8F88F28688001F4D40EE00128F7D0D3
:100A40006868226A00F48031914204D1616A00F43E
:100A50007010884201D00120EAE70020E8E700009A
:100A60000010024000004242800442421400002074
:100A70000070004070B5040009D0606A002540B1E4
:100A800025616561A56294F8510040B10CE0012038
:100A900070BD6068B0F5827FF4D0E561F2E784F85C
:100AA0005050204600F040F8022084F851002068A1
:100AB000016821F040010160A088218900F4827062
:100AC00001F404410843A18901F400610843217C39
:100AD00001F002010843217D01F001010843218B4F
:100AE00001F400710843217F01F03801084394F8B4
:100AF000201001F080010843218D01F400510843CA
:100B000021680860A069042101EA1040216848605A
:100B10002068C16921F40061C1616565012084F824
:100B20005100002070BD000030B585B00024009455
:100B300001940294039400681449884223D1144814
:100B4000816941F480518161816901F4805104918E
:100B5000816941F00401816180690E4D00F004005B
:100B60000490A02000900220019003200390694689
:100B70002846FFF779FB4020CDE900046946284666
:100B80000294FFF771FB05B030BD0000003001405A
:100B900000100240000801402DE9F84F044640686B
:100BA0000025984616460F464FF0040BB0F5827F9D
:100BB00001D1A06888B194F85000012818D0012014
:100BC00084F85000FFF74AFC814694F851004FF03A
:100BD000000A01280ED0022582E084F851B01346A5
:100BE0000A462046CDF8008000F036F9BDE8F88FBF
:100BF0000220FBE7002F72D0002E70D084F851B095
:100C0000C4F854A0A763A687E687C4F830A0A4F868
:100C100034A0A4F836A0C4F840A0C4F844A0A0684A
:100C2000B0F5004F09D12068016821F04001016052
:100C30002068016821F4804101602068016849064C
:100C400003D4016841F040010160E068D8B139E0A7
:100C500020688168C90709D0007BA16B0870A06B70
:100C6000401CA063E08F401EE0870CE0FFF7F6FB1E
:100C7000A0EB0901414503D3B8F1FF3F03D036E0B3
:100C8000B8F1000F33D0E08F0028E1D11DE02068DB
:100C90008168C90709D0C068A16B0880A06B801C5F
:100CA000A063E08F401EE0870CE0FFF7D7FBA0EBCE
:100CB0000901414503D3B8F1FF3F03D017E0B8F174
:100CC000000F14D0E08F0028E1D14A46414620466B
:100CD00000F017FE08B120206065606D00B10125AD
:100CE000012084F8510084F850A028467EE70325AF
:100CF000F6E72DE9F84F044690F8500000271D460E
:100D00001646894601280DD04FF0010B84F850B0EB
:100D1000FFF7A4FB804694F85100BA46012804D09E
:100D2000022793E00220BDE8F88FB9F1000F73D0DD
:100D3000002E71D0032084F85100C4F854A0C4F8E8
:100D40003090A686E686C4F838A0A4F83CA0A4F8A3
:100D50003EA0C4F844A0C4F840A0A068B0F5004F7D
:100D600009D12068016821F0400101602068016814
:100D700041F48041016020680168490603D401689C
:100D800041F040010160E068B0F5006F606803D099
:100D900030B3012E24D041E008B1012E1CD1206BCC
:100DA00021680088C86006E020688168890709D545
:100DB000216B0988C160206B801C2063E08E401E7F
:100DC000E08609E0FFF74AFBA0EB0800A84202D347
:100DD000681C01D031E07DB3E08E0028E4D120E032
:100DE000206B21680078087306E020688168890715
:100DF00009D5216B09780173206B401C2063E08EBC
:100E0000401EE0860AE0FFF729FBA0EB0800A8429D
:100E100003D3681C02D010E017E06DB1E08E00280B
:100E2000E3D142462946204600F099FD08B1202032
:100E30006065A06818B106E0FFE7032706E02068B8
:100E4000C16880680090606D00B1012784F851B0DE
:100E500084F850A0384666E72DE9F84F044690F82C
:100E6000500000270A9E1D4692468B464FF001090E
:100E700001280ED0012084F85000FFF7EFFA8046D9
:100E800094F85100616801280CD0B1F5827F07D138
:100E900002E00220BDE8F88FA16809B9042801D05A
:100EA0000227C2E0BBF1000F27D0BAF1000F24D017
:100EB0001DB394F85100042802D0052084F8510095
:100EC00000206065C4F838A0E587A587C4F830B075
:100ED000E586A5862064606420680168490603D41D
:100EE000016841F040010160E068B0F5006F6068A2
:100EF00005D0E8B3012D46D07FE0012795E008B189
:100F0000012D39D1206B21680088C860206B801CBE
:100F10002063E08E401EE0862EE02068816889070D
:100F20000FD5E18E69B1B9F1010F0AD1216B0988A2
:100F3000C160206B801C2063E08E401EE0864FF075
:100F4000000920688168C9070CD0E18F51B1C068E1
:100F5000A16B0880A06B801CA063E08F401EE0871F
:100F60004FF00109FFF77AFAA0EB0800B04200E069
:100F700009E001D3701C50D1E08E0028CDD1E08F64
:100F80000028CAD13FE0206B216800780873206BED
:100F9000401C2063E08E401EE0862EE020688168C1
:100FA00089070FD5E18E69B1B9F1010F0AD1216B23
:100FB00009780173206B401C2063E08E401EE086A0
:100FC0004FF0000920688168C9070CD0E18F51B14A
:100FD000C068A16B0870A06B401CA063E08F401E2E
:100FE000E0874FF00109FFF739FAA0EB0800B042A3
:100FF00002D3701C01D010E07EB1E08E0028CDD16C
:10100000E08F0028CAD142463146204600F0A7FCB6
:1010100028B101272020606507E0032705E0A068CC
:1010200018B92068C16880680090012084F85100D8
:10103000002084F8500038462CE710B5401EB0F16F
:10104000807F01D3012010BD4FF0E02460610F21AB
:10105000601700F0C1FD0020A06107202061002082
:1010600010BD70B5040004D094F83900002510B10B
:1010700006E0012070BD84F83850204600F022F8C8
:10108000242084F839002068C16821F40051C1602F
:10109000204600F0FDFC2068016921F490410161C7
:1010A0002068416921F02A0141612068C16841F44A
:1010B0000051C160E563202084F8390084F83A00CB
:1010C000002070BD30B585B00024009401940294D6
:1010D000039400681449884223D11448C16941F43B
:1010E0000031C161C16901F400310491816941F0AD
:1010F0000401816180690E4D00F004000490042019
:101100000090022001900320039069462846FFF7D3
:10111000ABF80820CDE90004694628460294FFF7A1
:10112000A3F805B030BD00000044004000100240AC
:10113000000801402DE9F843044690F839001F46A5
:1011400016460D4620284CD1C5B1BEB194F83800E2
:10115000012846D0012084F838004FF00008C4F878
:101160003C80212084F83900FFF778F9A684814675
:10117000E684A068B0F5805F03D004E00120BDE8FC
:10118000F883206928B12E465FF0000584F8388086
:101190000EE00026FAE78021204600F0D5FCA0B939
:1011A000AEB116F8010B21684860E08C401EE08467
:1011B000E08C4B464FF0000200970028EBD14FF037
:1011C0004001204600F0C0FC30B10320D7E735F8DD
:1011D000020BC0F30800E6E7202084F83900002065
:1011E000CDE70220CBE7FEE7F0B585B000241C4830
:1011F0000094019402940394816941F0200181617B
:10120000816901F020010491816941F0040181614B
:10121000816901F004010491816941F00801816153
:101220008069104F00F008004FF4407604900022CF
:1012300031463846FFF70DF90225CDE900546946DD
:1012400009480294FFF710F801AA0120009682E8ED
:10125000310069463846FFF707F805B0F0BD0000D9
:1012600000100240000C0140000801400C480B49EE
:101270004FF4007201604FF482714160002181607F
:10128000C1600161C0E905122022C0E90721416265
:1012900081620A21C162FFF7EDBB0000003001400E
:1012A00030000020FEE7704708B5002000F008F984
:1012B00050208DF8000073208DF801006423022275
:1012C00069460348FFF715FD012000F0F9F808BD55
:1012D000E80000200449054A0968B1FBF2F14143E6
:1012E000491EFDD27047000014000020C0C62D002A
:1012F00070B5054600F055F90446C0F380166EB18E
:1013000015B1C4F3420028704021072000F0C2FA52
:10131000A00603D52021072000F0BCFA304670BD9E
:101320000FB47CB514460D460646582209A95D48FF
:10133000FEF708FF5C4B0120DE60DD801C8100F0C1
:10134000BFF8002000F0B2F80520FEF77BFF08216F
:10135000002000F09FFA3F21012000F09BFA0321BA
:10136000022000F097FA0321084600F093FA0321C7
:10137000042000F08FFA0221052000F08BFA0F21E3
:10138000062000F087FA0E21072000F083FA0021E2
:10139000082000F07FFA0021092000F07BFAE72402
:1013A0008DF803408DF802408DF801408DF804401F
:1013B0008DF80040052269460A2000F083FAC22019
:1013C0008DF803008DF802008DF801008DF80400FF
:1013D0008DF80000052269460B2000F073FAC32146
:1013E0000C2000F057FAC4210D2000F053FAC5215B
:1013F0000E2000F04FFAC6210F2000F04BFA8DF8B6
:1014000003408DF802408DF801408DF804408DF8BE
:10141000004005226946102000F054FA00211120F6
:1014200000F038FA0021122000F034FA00211320D5
:1014300000F030FA0021142000F02CFA00211520D1
:1014400000F028FA0021162000F024FAFFF72CFF04
:1014500000211C2000F01EFA00211D2000F01AFAC5
:1014600000F0BCFE0F21084600F076F9032000F0E2
:101470004DF9012000F01EF9022000F000F900F003
:1014800029F8202000F060F900F0EEF84C2000F080
:101490000AF900F07FF800F079F800F09BF87CBCC6
:1014A0005DF814FBE800002018000020020003484B
:1014B0000189C06800D00122FEF7CBBF18000020D0
:1014C00002000348C188C06800D00122FEF7C1BFF6
:1014D0001800002010B51D2000F088F820F004014D
:1014E0001D2000F0D7F900211C2000F0D3F902499B
:1014F0000020C87010BD00001800002010B51D208D
:1015000000F074F840F006011D2000F0C3F91D2022
:1015100000F06CF848B9FFF7C7FE1D2000F066F830
:1015200040F006011D2000F0B5F91C2000F05EF827
:1015300040F00301BDE810401C2000F0ABB90000F2
:1015400010B51D2000F052F840F004011D2000F0FD
:10155000A1F91D2000F04AF848B9FFF7A5FE1D20AB
:1015600000F044F840F004011D2000F093F91C2025
:1015700000F03CF840F03F011C2000F08BF90249DC
:101580000120C87010BD000018000020FF21E220DB
:1015900000F080B9FF21E12000F07CB9602000F06C
:1015A00025B8072000F022B813B5052269460A20A5
:1015B00000F088F905226946102000F083F90448FC
:1015C0008178202900D32021112000F063F91CBD6F
:1015D0001800002010B5002000F008F820F00201EB
:1015E000BDE81040002000F055B9000038B50446B1
:1015F0000020FFF765FF04F01F008DF80000642352
:10160000012269460848FFF774FB6423012206485B
:101610000DF10101FFF7C0FA9DF801400120FFF72D
:101620004FFF204638BD0000E8000020F8B5044612
:1016300015460E460020FFF743FF04F01F008DF80B
:1016400000006423012269460648FFF752FB642329
:101650002A4631460348FFF79FFA0120FFF730FF83
:10166000F8BD0000E80000207021072000F012B94A
:1016700008B13F2100E00021012000F00BB910B5B6
:1016800004460020FFF7B2FF20F00C011CB1012C32
:1016900006D041F00C01BDE81040002000F0FAB87F
:1016A00041F00801F7E77F2800D37F20014605209D
:1016B00000F0F0B82DE9F041074600260620FFF7BC
:1016C00095FF114DB04620F0280485F80580022FC3
:1016D00002D0012F03D006E044F0200403E00120F3
:1016E000687144F008042146062000F0D3F8062073
:1016F000FFF77CFFA04201D1012601E085F80580BB
:101700003046BDE8F08100001800002010B5044606
:101710000620FFF76BFF20F00601032C0DD0022CF2
:1017200005D0012C06D054B1042C06D007E041F0BE
:10173000040104E041F0020101E041F00601BDE8CE
:101740001040062000F0A6B8202800D32020014930
:10175000887070471800002000F00F0060F31F1120
:10176000042000F097B870B505460C460020FFF73E
:101770009DFE0020FFF73AFF20F0010040F002013B
:10178000002000F087F80120FFF790FE9620FFF779
:10179000A1FD2146284600F061F80120FFF786FEF2
:1017A0000F20FFF797FDBDE870400020FFF77EBED9
:1017B00010B50020FFF77AFEFFF7ECFEBDE8104001
:1017C000FFF7E4BE2DE9F04115460E460446FFF74B
:1017D000E8FE0746002020707021072000F05AF82C
:1017E000C7F340102070C7F300103070C7F38010AB
:1017F0002870BDE8F08100003EB50C460546FFF7B5
:1018000033FF21462846FFF7AEFFFEF727FE0446CA
:10181000012201A90820FFF709FFFFF7C2FE10F01F
:10182000300F04D1FEF71AFE001B0A28F0D30A4A33
:1018300002A96846FFF7C6FF074C9DF800502078C4
:1018400010B1FFF7ABFE60700020FFF751FDFFF70E
:10185000A1FE28463EBD00001800002038B5054610
:101860000C460020FFF72CFEA0208DF8000064231A
:10187000012269460648FFF73CFA642322462946BE
:101880000348FFF736FA0120FFF71AFE38BD0000C3
:10189000E800002038B505460C460020FFF710FE92
:1018A00045F020008DF800008DF8014064230222ED
:1018B00069460348FFF71DFA0120FFF701FE38BD16
:1018C000E8000020F8B5044615460E460020FFF754
:1018D000F7FD44F020008DF80000642301226946E2
:1018E0000648FFF706FA64232A4631460348FFF705
:1018F00000FA0120FFF7E4FDF8BD0000E800002039
:101900007047F8B5044640684FF48273984217D187
:10191000A0684FF48065B0F5004F01D0A8420FD108
:101920002068066826F0400606606068984207D185
:10193000A068A84204D100920B460022012103E0D6
:1019400000920B4600228021204600F019F8002862
:1019500004D0606D40F0200060650320F8BD38B50C
:101960000B46009204460022802100F009F800286E
:1019700004D0606D40F020006065032038BD000099
:101980002DE9F8431E46914688460446089DFEF719
:1019900065FD401B351AFEF761FD074625480068C6
:1019A000C0F3CB30684338E0701C37D0FEF756FDEB
:1019B000C01BA84203D215B1009860B32CE0206888
:1019C000416821F0E00141606068B0F5827F0BD191
:1019D000A068B0F5004F02D0B0F5806F04D1206848
:1019E000016821F040010160A06AB0F5005F09D1F3
:1019F0002068016821F4005101602068016841F409
:101A000000510160012084F85100002084F850004A
:101A10000320BDE8F8830025401E009020688168FF
:101A200038EA010004D000214945BDD10020F0E78B
:101A30000121F9E7140000207047FEF715BD30B50D
:101A40008FB028216846FEF796FB14210AA8FEF7FE
:101A500092FB01210804CDE9001000240294022524
:101A60000491CDE907504FF4E01009906846FEF765
:101A700071FE0F20CDE90A056802CDE90C40022174
:101A80000AA80E94FEF77AFD0FB030BD7047000033
:101A900070B5044600680169E26821F440511143C1
:101AA00001612169A0680843616908432168CA6827
:101AB00041F20C639A430243CA6020684169A269FB
:101AC00021F44071114341611E492068884202D1CE
:101AD000FEF7FAFD01E0FEF7E7FD00EBC00101EBC8
:101AE0000012606864218000B2FBF0F3B3FBF1F3F5
:101AF0006FF018067343B2FBF0F5B2FBF0F605EB9E
:101B00008305322303EB0515B5FBF1F5B6FBF1F6C2
:101B100005F0F00505EB0615B2FBF0F6B2FBF0F0B0
:101B2000B0FBF1F06FF01802504306EB800003EBBE
:101B30000010B0FBF1F0216800F00F00284488602D
:101B400070BD0000003801402DE9F041984617466D
:101B50000E460446069D1DE0681C1BD02DB1FEF705
:101B60007DFCA0EB0800A84214D92068C16821F4CC
:101B7000D071C1602068416921F0010141612020DC
:101B800084F8390084F83A00002084F838000320F3
:101B9000BDE8F0812068006836EA000004D000202B
:101BA000B842D9D00020F3E70120F9E7FEE70000B2
:101BB0000FB4084B10B504A902AA039800F02CF842
:101BC000044602A9002000F058FA204610BC5DF837
:101BD00014FB00007B2000080907090E002804DB25
:101BE00000F1E02080F80014704700F00F0000F1D1
:101BF000E02080F8141D704702E008C8121F08C1D9
:101C0000002AFAD170477047002001E001C1121F7D
:101C1000002AFBD1704700002DE9FF4F8DB00F4621
:101C20000546002606E025280BD0DDE90F12904777
:101C30006D1C761C28780028F5D111B03046BDE81F
:101C4000F08F0024A246A1460122EC4900E00443A3
:101C500015F8013F203B02FA03F00842F7D128783B
:101C60002A2810D06FF02F022878A0F1300109291E
:101C700014D80AEB8A0102EB410144F0020400EBA4
:101C8000010A6D1CF0E701CF5FEA000A03D544F4B6
:101C90000054CAF1000A44F002046D1C28782E2872
:101CA00017D115F8010F44F004042A280ED06FF064
:101CB0002F022878A0F1300109290AD809EB8901FF
:101CC00002EB410100EB01096D1CF2E757F8049BA0
:101CD0006D1C28786C280FD006DC4C2817D068289B
:101CE0000DD06A2814D104E0742810D07A280FD1BE
:101CF0000DE044F400140AE044F4801401E044F4DC
:101D000040146978814202D104F580146D1C6D1C69
:101D10002A786E2A1FD00CDC632A31D004DC002A1A
:101D20008BD0582A11D1A3E0642A68D0692A0CD13B
:101D300065E0732A2ED004DC6F2A73D0702A04D198
:101D40009BE0752A6FD0782A6ED01046DDE90F121D
:101D50009047761C50E1C4F30250022806D00328B5
:101D600009D0042801CF09D0066045E101CFF11761
:101D7000C0E9006140E101CF06803DE106703BE132
:101D800017F8040B8DF8000000208DF80100EB46D9
:101D9000012003E057F804BB4FF0FF3061074FF01C
:101DA000000102D40DE008F10101884649450FDA2F
:101DB0008045F8DB1BF808100029F4D108E008F191
:101DC000010188468142FADB1BF808100029F6D190
:101DD000DDE90F23AAEB08008146214600F036F921
:101DE000304400EB080604E0DDE90F121BF8010B9C
:101DF0009047B8F10108F7D221464846F7E00A219A
:101E0000C4F302534FF0000B0891022B04D001CF12
:101E1000C117032B09D00AE0FF1D27F00707F7E8D9
:101E2000020108E032E01FE020E000B2C117042BFD
:101E300001D140B2C117031E71F1000307DA4FF060
:101E4000000CD0EB0C006CEB01012D2302E023050C
:101E500004D52B238DF82430012303E0E30701D0C0
:101E60002023F7E7984658E00A2110E010210EE001
:101E700010204FF0000B08900CE010214FF0000BE9
:101E800044F004044FF00809089103E008214FF0E2
:101E9000000B0891C4F30253022B04D001CF0021A0
:101EA000032B06D006E0FF1D27F00707F7E8020125
:101EB00003E080B2042B00D1C0B24FF0000823072A
:101EC0002BD5702A07D0DDF820C08CF0100C5CEA0E
:101ED0000B0C05D00EE040238DF82430012308E0E0
:101EE00050EA010306D030238DF824308DF82520E8
:101EF00002239846DDF820C08CF0080C5CEA0B0C3D
:101F00000BD150EA010301D1630706D530238DF8C8
:101F100024304FF00108A9F10109582A04D038A251
:101F20000B9208AA0A920BE03AA2F9E75B46089ADC
:101F3000FEF733F90B9B9B5C0A9A521E0A921370B0
:101F400050EA0102F2D10A98ADEB000000F1200B3B
:101F5000600702D524F4803401E04FF00109D9452F
:101F600002DDA9EB0B0000E0002000EB0B01414477
:101F70000890AAEB010AE00306D4DDE90F2321460D
:101F8000504600F063F806444FF0000908E009A944
:101F900011F80900DDE90F12904709F10109761CDB
:101FA000C145F4DBE0030CD5DDE90F2321465046A3
:101FB00000F04CF8064404E0DDE90F1230209047B1
:101FC000761C0899481E08900029F5DC08E00A985C
:101FD0000A990078491C0A91DDE90F129047761C96
:101FE000BBF10001ABF1010BF1DC21465046DDE90C
:101FF0000F2300F019F806446D1C1BE609280100A8
:10200000303132333435363738396162636465666E
:102010000000000030313233343536373839414230
:1020200043444546000000002DE9F04104460025E8
:102030001E461746880404D405E039462020B047E0
:102040006D1C641EF9D52846BDE8F0812DE9F041EC
:10205000044600251E469046C80301D5302700E0FF
:102060002027880404D505E041463846B0476D1C5A
:10207000641EF9D52846BDE8F0810A68531C0B6040
:1020800010707047ACB0FEF7F7F9FFF7D8FCFFF718
:10209000ABF8FFF7EBF8474C45480C2120604FF4B4
:1020A000E13060600020A060E060C4E90401A0614C
:1020B000E0612046FEF7D5FF3622A4F1580115A8AD
:1020C000FEF740F8A4F15805E88EADF88A00A86B39
:1020D0002390A88FADF89000E88FADF89200112200
:1020E000A4F1180125A8FEF72DF895F851008DF8F8
:1020F000A500686D2A90542216A96846FEF722F8BA
:102100004FF4007251102C48159BFFF709F9262255
:1021100021460CA8FEF716F8E08CADF8560004F145
:102120002800016816918088ADF85C00E08DADF85C
:102130005E00092204F1300118A8FEF703F894F8B4
:1021400039008DF8690094F83A008DF86A00E06B68
:102150001B90302210A96846FDF7F4FF0DF1300CFA
:102160009CE80F0000F02EF800F038F8FFF720FB95
:102170001249D1E90001FFF717FA0120FFF778FAB9
:102180003420FFF790FA2020FFF7DEFAFFF7D8F9A6
:10219000FFF7B4F90A4D403402212846FEF754F9FE
:1021A0002070044820214030FFF726FBF4E70000B0
:1021B0000044004088000020000C01400000002086
:1021C000000801400FB4402210B502A90248FDF7F3
:1021D000B9FF10BC5DF814FB4001002010B5A0B0A1
:1021E000F4A104A8FFF7E4FC04A8FDF7CFFF82B236
:1021F0000A2304A9FC48FEF79DFF0020FFF7F6F92B
:1022000001077AD5400701D5F8A100E0FEA104A896
:10221000FFF7CEFC04A8FDF7B9FF82B20A2304A998
:10222000F148FEF787FF0120FFF7E0F9C0F3401403
:10223000C0F30013C0F3C002C0F380018DE81E009C
:1022400000F00102C0F34003F64904A8FFF7B0FC18
:1022500004A8FDF79BFF82B20A2304A9E248FEF717
:1022600069FF0220FFF7C2F9C0F34014C0F3001366
:10227000C0F3C002C0F380018DE81E0000F001022F
:10228000C0F34003E84904A8FFF792FC04A8FDF757
:102290007DFF82B20A2304A9D348FEF74BFF032037
:1022A000FFF7A4F900F00302E0A104A8921CFFF7D5
:1022B0007FFC04A8FDF76AFF82B20A2304A9CA487A
:1022C000FEF738FF0520FFF791F900F07F02DEA14D
:1022D00004A8FFF76DFC04A8FDF758FF82B20A239B
:1022E00004A9C148FEF726FF0620FFF77FF9044640
:1022F000000704D5D9A103E0FFE7DEA187E7E2A14B
:1023000004A8FFF755FC04A8FDF740FF82B20A239A
:1023100004A9B548FEF70EFF032010EA540006D0CA
:10232000012806D0022806D0032806D009E0DCA147
:1023300004E0E0A102E0E4A100E0E8A104A8FFF7C6
:1023400037FC04A8FDF722FF82B20A2304A9A6489D
:10235000FEF7F0FE05221DA90A20FFF767F99DF898
:1023600076009DF874209DF875108DE807009DF8A3
:1023700077309DF87820DEA104A8FFF719FC04A8A7
:10238000FDF704FF82B20A2304A99748FEF7D2FEA4
:1023900005221DA90B20FFF749F99DF876009DF84D
:1023A00074209DF875108DE807009DF877309DF832
:1023B0007820DBA104A8FFF7FBFB04A8FDF7E6FEED
:1023C00082B20A2304A98848FEF7B4FE01221DA99F
:1023D0000C20FFF72BF99DF87420DDA104A8FFF76E
:1023E000E7FB04A8FDF7D2FE82B20A2304A97E48C7
:1023F000FEF7A0FE01221DA90D20FFF717F99DF899
:102400007420DDA104A8FFF7D3FB04A8FDF7BEFEEE
:1024100082B20A2304A97448FEF78CFE01221DA98A
:102420000E20FFF703F99DF87420DDA104A8FFF743
:10243000BFFB04A8FDF7AAFE82B20A2304A96A48DA
:10244000FEF778FE01221DA90F20FFF7EFF89DF897
:102450007420DDA104A8FFF7ABFB04A8FDF796FEEE
:1024600082B20A2304A96048FEF764FE05221DA972
:102470001020FFF7DBF89DF876009DF874209DF89A
:1024800075108DE807009DF877309DF87820D8A169
:1024900004A8FFF78DFB04A8FDF778FE82B20A239B
:1024A00004A95148FEF746FE1120FFF79FF800F0FF
:1024B0003F02DAA104A8FFF77BFB04A8FDF766FE44
:1024C00082B20A2304A94848FEF734FE1220FFF71F
:1024D0008DF800F03F02D8A104A8FFF769FB04A81B
:1024E000FDF754FE82B20A2304A93F48FEF722FEFC
:1024F0001320FFF77BF800F03F02D6A104A8FFF7F6
:1025000057FB04A8FDF742FE82B20A2304A936480D
:10251000FEF710FE1420FFF769F800F03F02D4A187
:1025200004A8FFF745FB04A8FDF730FE82B20A239A
:1025300004A92D48FEF7FEFD1520FFF757F800F01F
:102540003F02D2A104A8FFF733FB04A8FDF71EFE4B
:1025500082B20A2304A92448FEF7ECFD1620FFF7F7
:1025600045F800F03F02D0A104A8FFF721FB04A822
:10257000FDF70CFE82B20A2304A91B48FEF7DAFD20
:102580001C20FFF733F8C0F34014C0F30013C0F36E
:10259000C002C0F380018DE81E0000F00102C0F30C
:1025A0004003C84904A8FFF703FB04A8FDF7EEFDAC
:1025B00082B289E10D0A2A2A2A2A2A2A2A2A2A2AC2
:1025C0002A2A2A2A2A2A2A2A2A2A2A2A2A2A2A2A6B
:1025D0002A2A2A2A2A2A2A2A2A2A2A2A2A2A2A2A5B
:1025E0002A2A2A2A0D0A0000400100204352433AB9
:1025F0000D0A0909456E61626C65642C2032204227
:1026000079746573200D0A004352433A0D0A090993
:10261000456E61626C65642C2031204279746520BE
:102620000D0A0000C4290008082A00085345545523
:10263000505F41573A0D0A09092564206279746593
:1026400073200D0A0000000052465F43483A0D0A0D
:1026500009092564204348200D0A00004461746183
:1026600020526174653A0D0A0909324D6270732077
:102670000D0A00004352433A0D0A09094469736187
:10268000626C6564200D0A004461746120526174BB
:10269000653A0D0A0909314D627073200D0A000078
:1026A00052465F5057523A0D0A09092D313864429B
:1026B000200D0A0052465F5057523A0D0A09092D63
:1026C00031326442200D0A0052465F5057523A0D93
:1026D0000A09092D366442200D0A000052465F5057
:1026E00057523A0D0A0909306442200D0A000000D1
:1026F00052585F50697065302041646472733A0DBE
:102700000A0909253032582C253032582C25303210
:10271000582C253032582C2530325820200D0A00F4
:1027200052585F50697065312041646472733A0D8C
:102730000A0909253032582C253032582C253032E0
:10274000582C253032582C2530325820200D0A00C4
:1027500052585F50697065322041646472733A0D5B
:102760000A090978782C78782C78782C78782C25B8
:1027700030325820200D0A0052585F50697065337E
:102780002041646472733A0D0A090978782C7878CC
:102790002C78782C78782C2530325820200D0A009F
:1027A00052585F50697065342041646472733A0D09
:1027B0000A090978782C78782C78782C78782C2568
:1027C00030325820200D0A0052585F50697065352C
:1027D0002041646472733A0D0A090978782C78787C
:1027E0002C78782C78782C2530325820200D0A004F
:1027F00054582041646472733A0D0A090925303235
:10280000582C253032582C253032582C253032584F
:102810002C2530325820200D0A00000052585F50FD
:10282000575F50303A0D0A090925642062797465B2
:1028300073200D0A0000000052585F50575F50315E
:102840003A0D0A09092564206279746573200D0A1E
:102850000000000052585F50575F50323A0D0A098D
:10286000092564206279746573200D0A0000000058
:1028700052585F50575F50333A0D0A0909256420BA
:102880006279746573200D0A0000000052585F5091
:10289000575F50343A0D0A0909256420627974653E
:1028A00073200D0A0000000052585F50575F5035EA
:1028B0003A0D0A09092564206279746573200D0AAE
:1028C00000000000542A00080A2304A91C48FEF74F
:1028D00031FC1D20FEF78AFE0446400701D519A1F0
:1028E00000E01EA104A8FFF763F904A8FDF74EFC61
:1028F00082B20A2304A91248FEF71CFCA00701D5E6
:102900001CA100E022A104A8FFF752F904A8FDF7DA
:102910003DFC82B20A2304A90948FEF70BFCAFF282
:102920006C3104A8FFF744F904A8FDF72FFC82B22C
:102930000A2304A90248FEF7FDFB20B010BD0000E9
:1029400040010020454E5F44504C3A0D0A090945AC
:102950006E61626C6564200D0A000000454E5F44A4
:10296000504C3A0D0A090944697361626C65642030
:102970000D0A0000454E5F41434B5F5041593A0DEF
:102980000A0909456E61626C6564200D0A00000049
:10299000454E5F41434B5F5041593A0D0A09094486
:1029A000697361626C6564200D0A0000000000001C
:1029B00000000000010203040607080900000000EF
:1029C00001020304454E41413A0D0A090950303ACB
:1029D0000925640D0A090950313A0925640D0A09CF
:1029E0000950323A0925640D0A090950333A09257C
:1029F000640D0A090950343A0925640D0A09095081
:102A0000353A0925640D0A00454E5F525841444449
:102A1000523A0D0A090950303A0925640D0A09098C
:102A200050313A0925640D0A090950323A092564E2
:102A30000D0A090950333A0925640D0A0909503471
:102A40003A0925640D0A090950353A0925640D0A29
:102A50000000000044594E50445F706970653A0DA3
:102A60000A090950303A0925640D0A090950313A1A
:102A70000925640D0A090950323A0925640D0A092D
:102A80000950333A0925640D0A090950343A0925D9
:102A9000640D0A090950353A0925640D0A00000041
:102AA000C02A00080000002030000000F81B0008C9
:102AB000F02A00083000002050050000081C000823
:102AC000AA443322110000000100000010000000A1
:102AD000000000000024F4000000000000000000DE
:102AE00000000000000000000000000000000000E6
:04000005080000ED02
:00000001FF
